{
  "_format": "hh-sol-artifact-1",
  "contractName": "DrugTraceability",
  "sourceName": "contracts/DrugTraceability.sol",
  "abi": [
    {
      "inputs": [],
      "name": "drugCount",
      "outputs": [
        {
          "internalType": "uint256",
          "name": "",
          "type": "uint256"
        }
      ],
      "stateMutability": "view",
      "type": "function"
    },
    {
      "inputs": [
        {
          "internalType": "uint256",
          "name": "",
          "type": "uint256"
        }
      ],
      "name": "drugs",
      "outputs": [
        {
          "internalType": "string",
          "name": "name",
          "type": "string"
        },
        {
          "internalType": "string",
          "name": "manufacturer",
          "type": "string"
        },
        {
          "internalType": "string",
          "name": "batchNumber",
          "type": "string"
        },
        {
          "internalType": "address",
          "name": "owner",
          "type": "address"
        }
      ],
      "stateMutability": "view",
      "type": "function"
    },
    {
      "inputs": [],
      "name": "getAllRegisteredDrugs",
      "outputs": [
        {
          "internalType": "uint256[]",
          "name": "",
          "type": "uint256[]"
        }
      ],
      "stateMutability": "view",
      "type": "function"
    },
    {
      "inputs": [
        {
          "internalType": "uint256",
          "name": "_id",
          "type": "uint256"
        }
      ],
      "name": "getDrugDetails",
      "outputs": [
        {
          "internalType": "string",
          "name": "",
          "type": "string"
        },
        {
          "internalType": "string",
          "name": "",
          "type": "string"
        },
        {
          "internalType": "string",
          "name": "",
          "type": "string"
        },
        {
          "internalType": "address",
          "name": "",
          "type": "address"
        }
      ],
      "stateMutability": "view",
      "type": "function"
    },
    {
      "inputs": [
        {
          "internalType": "uint256",
          "name": "_id",
          "type": "uint256"
        },
        {
          "internalType": "string",
          "name": "_name",
          "type": "string"
        },
        {
          "internalType": "string",
          "name": "_manufacturer",
          "type": "string"
        },
        {
          "internalType": "string",
          "name": "_batchNumber",
          "type": "string"
        }
      ],
      "name": "registerDrug",
      "outputs": [],
      "stateMutability": "nonpayable",
      "type": "function"
    },
    {
      "inputs": [
        {
          "internalType": "uint256",
          "name": "_id",
          "type": "uint256"
        },
        {
          "internalType": "address",
          "name": "_newOwner",
          "type": "address"
        }
      ],
      "name": "transferOwnership",
      "outputs": [],
      "stateMutability": "nonpayable",
      "type": "function"
    }
  ],
  "bytecode": "0x608060405234801561001057600080fd5b5061113b806100206000396000f3fe608060405234801561001057600080fd5b50600436106100625760003560e01c80631b6877421461006757806329507f73146100835780632df6f8241461009f57806360ee0b6d146100bd5780637577ca37146100f0578063fca5e61e1461010e575b600080fd5b610081600480360381019061007c919061099d565b610141565b005b61009d60048036038101906100989190610ab6565b610234565b005b6100a761032f565b6040516100b49190610bb4565b60405180910390f35b6100d760048036038101906100d29190610bd6565b6103c8565b6040516100e79493929190610c91565b60405180910390f35b6100f861061f565b6040516101059190610cfa565b60405180910390f35b61012860048036038101906101239190610bd6565b610625565b6040516101389493929190610c91565b60405180910390f35b60405180608001604052808481526020018381526020018281526020013373ffffffffffffffffffffffffffffffffffffffff16815250600080868152602001908152602001600020600082015181600001908161019f9190610f21565b5060208201518160010190816101b59190610f21565b5060408201518160020190816101cb9190610f21565b5060608201518160030160006101000a81548173ffffffffffffffffffffffffffffffffffffffff021916908373ffffffffffffffffffffffffffffffffffffffff1602179055509050506001600081548092919061022990611022565b919050555050505050565b3373ffffffffffffffffffffffffffffffffffffffff1660008084815260200190815260200160002060030160009054906101000a900473ffffffffffffffffffffffffffffffffffffffff1673ffffffffffffffffffffffffffffffffffffffff16146102d7576040517f08c379a00000000000000000000000000000000000000000000000000000000081526004016102ce906110b6565b60405180910390fd5b8060008084815260200190815260200160002060030160006101000a81548173ffffffffffffffffffffffffffffffffffffffff021916908373ffffffffffffffffffffffffffffffffffffffff1602179055505050565b6060600060015467ffffffffffffffff81111561034f5761034e610872565b5b60405190808252806020026020018201604052801561037d5781602001602082028036833780820191505090505b50905060005b6001548110156103c057808282815181106103a1576103a06110d6565b5b60200260200101818152505080806103b890611022565b915050610383565b508091505090565b60608060606000806000808781526020019081526020016000206040518060800160405290816000820180546103fd90610d44565b80601f016020809104026020016040519081016040528092919081815260200182805461042990610d44565b80156104765780601f1061044b57610100808354040283529160200191610476565b820191906000526020600020905b81548152906001019060200180831161045957829003601f168201915b5050505050815260200160018201805461048f90610d44565b80601f01602080910402602001604051908101604052809291908181526020018280546104bb90610d44565b80156105085780601f106104dd57610100808354040283529160200191610508565b820191906000526020600020905b8154815290600101906020018083116104eb57829003601f168201915b5050505050815260200160028201805461052190610d44565b80601f016020809104026020016040519081016040528092919081815260200182805461054d90610d44565b801561059a5780601f1061056f5761010080835404028352916020019161059a565b820191906000526020600020905b81548152906001019060200180831161057d57829003601f168201915b505050505081526020016003820160009054906101000a900473ffffffffffffffffffffffffffffffffffffffff1673ffffffffffffffffffffffffffffffffffffffff1673ffffffffffffffffffffffffffffffffffffffff1681525050905080600001518160200151826040015183606001519450945094509450509193509193565b60015481565b600060205280600052604060002060009150905080600001805461064890610d44565b80601f016020809104026020016040519081016040528092919081815260200182805461067490610d44565b80156106c15780601f10610696576101008083540402835291602001916106c1565b820191906000526020600020905b8154815290600101906020018083116106a457829003601f168201915b5050505050908060010180546106d690610d44565b80601f016020809104026020016040519081016040528092919081815260200182805461070290610d44565b801561074f5780601f106107245761010080835404028352916020019161074f565b820191906000526020600020905b81548152906001019060200180831161073257829003601f168201915b50505050509080600201805461076490610d44565b80601f016020809104026020016040519081016040528092919081815260200182805461079090610d44565b80156107dd5780601f106107b2576101008083540402835291602001916107dd565b820191906000526020600020905b8154815290600101906020018083116107c057829003601f168201915b5050505050908060030160009054906101000a900473ffffffffffffffffffffffffffffffffffffffff16905084565b6000604051905090565b600080fd5b600080fd5b6000819050919050565b61083481610821565b811461083f57600080fd5b50565b6000813590506108518161082b565b92915050565b600080fd5b600080fd5b6000601f19601f8301169050919050565b7f4e487b7100000000000000000000000000000000000000000000000000000000600052604160045260246000fd5b6108aa82610861565b810181811067ffffffffffffffff821117156108c9576108c8610872565b5b80604052505050565b60006108dc61080d565b90506108e882826108a1565b919050565b600067ffffffffffffffff82111561090857610907610872565b5b61091182610861565b9050602081019050919050565b82818337600083830152505050565b600061094061093b846108ed565b6108d2565b90508281526020810184848401111561095c5761095b61085c565b5b61096784828561091e565b509392505050565b600082601f83011261098457610983610857565b5b813561099484826020860161092d565b91505092915050565b600080600080608085870312156109b7576109b6610817565b5b60006109c587828801610842565b945050602085013567ffffffffffffffff8111156109e6576109e561081c565b5b6109f28782880161096f565b935050604085013567ffffffffffffffff811115610a1357610a1261081c565b5b610a1f8782880161096f565b925050606085013567ffffffffffffffff811115610a4057610a3f61081c565b5b610a4c8782880161096f565b91505092959194509250565b600073ffffffffffffffffffffffffffffffffffffffff82169050919050565b6000610a8382610a58565b9050919050565b610a9381610a78565b8114610a9e57600080fd5b50565b600081359050610ab081610a8a565b92915050565b60008060408385031215610acd57610acc610817565b5b6000610adb85828601610842565b9250506020610aec85828601610aa1565b9150509250929050565b600081519050919050565b600082825260208201905092915050565b6000819050602082019050919050565b610b2b81610821565b82525050565b6000610b3d8383610b22565b60208301905092915050565b6000602082019050919050565b6000610b6182610af6565b610b6b8185610b01565b9350610b7683610b12565b8060005b83811015610ba7578151610b8e8882610b31565b9750610b9983610b49565b925050600181019050610b7a565b5085935050505092915050565b60006020820190508181036000830152610bce8184610b56565b905092915050565b600060208284031215610bec57610beb610817565b5b6000610bfa84828501610842565b91505092915050565b600081519050919050565b600082825260208201905092915050565b60005b83811015610c3d578082015181840152602081019050610c22565b60008484015250505050565b6000610c5482610c03565b610c5e8185610c0e565b9350610c6e818560208601610c1f565b610c7781610861565b840191505092915050565b610c8b81610a78565b82525050565b60006080820190508181036000830152610cab8187610c49565b90508181036020830152610cbf8186610c49565b90508181036040830152610cd38185610c49565b9050610ce26060830184610c82565b95945050505050565b610cf481610821565b82525050565b6000602082019050610d0f6000830184610ceb565b92915050565b7f4e487b7100000000000000000000000000000000000000000000000000000000600052602260045260246000fd5b60006002820490506001821680610d5c57607f821691505b602082108103610d6f57610d6e610d15565b5b50919050565b60008190508160005260206000209050919050565b60006020601f8301049050919050565b600082821b905092915050565b600060088302610dd77fffffffffffffffffffffffffffffffffffffffffffffffffffffffffffffffff82610d9a565b610de18683610d9a565b95508019841693508086168417925050509392505050565b6000819050919050565b6000610e1e610e19610e1484610821565b610df9565b610821565b9050919050565b6000819050919050565b610e3883610e03565b610e4c610e4482610e25565b848454610da7565b825550505050565b600090565b610e61610e54565b610e6c818484610e2f565b505050565b5b81811015610e9057610e85600082610e59565b600181019050610e72565b5050565b601f821115610ed557610ea681610d75565b610eaf84610d8a565b81016020851015610ebe578190505b610ed2610eca85610d8a565b830182610e71565b50505b505050565b600082821c905092915050565b6000610ef860001984600802610eda565b1980831691505092915050565b6000610f118383610ee7565b9150826002028217905092915050565b610f2a82610c03565b67ffffffffffffffff811115610f4357610f42610872565b5b610f4d8254610d44565b610f58828285610e94565b600060209050601f831160018114610f8b5760008415610f79578287015190505b610f838582610f05565b865550610feb565b601f198416610f9986610d75565b60005b82811015610fc157848901518255600182019150602085019450602081019050610f9c565b86831015610fde5784890151610fda601f891682610ee7565b8355505b6001600288020188555050505b505050505050565b7f4e487b7100000000000000000000000000000000000000000000000000000000600052601160045260246000fd5b600061102d82610821565b91507fffffffffffffffffffffffffffffffffffffffffffffffffffffffffffffffff820361105f5761105e610ff3565b5b600182019050919050565b7f596f7520617265206e6f7420746865206f776e65720000000000000000000000600082015250565b60006110a0601583610c0e565b91506110ab8261106a565b602082019050919050565b600060208201905081810360008301526110cf81611093565b9050919050565b7f4e487b7100000000000000000000000000000000000000000000000000000000600052603260045260246000fdfea26469706673582212209c8d4eb8ed4f62513d49ed5503dfb716121ced1717b64bbfdbee84da705b8a3964736f6c63430008120033",
  "linkReferences": {},
  "deployedLinkReferences": {}
}