{
  "_format": "hh-sol-artifact-1",
  "contractName": "DrugTraceability",
  "sourceName": "contracts/DrugTraceability.sol",
  "abi": [
    {
      "inputs": [
        {
          "internalType": "string",
          "name": "",
          "type": "string"
        }
      ],
      "name": "batchNumberExists",
      "outputs": [
        {
          "internalType": "bool",
          "name": "",
          "type": "bool"
        }
      ],
      "stateMutability": "view",
      "type": "function"
    },
    {
      "inputs": [],
      "name": "drugCount",
      "outputs": [
        {
          "internalType": "uint256",
          "name": "",
          "type": "uint256"
        }
      ],
      "stateMutability": "view",
      "type": "function"
    },
    {
      "inputs": [
        {
          "internalType": "uint256",
          "name": "",
          "type": "uint256"
        }
      ],
      "name": "drugs",
      "outputs": [
        {
          "internalType": "string",
          "name": "name",
          "type": "string"
        },
        {
          "internalType": "string",
          "name": "manufacturer",
          "type": "string"
        },
        {
          "internalType": "string",
          "name": "batchNumber",
          "type": "string"
        },
        {
          "internalType": "address",
          "name": "owner",
          "type": "address"
        },
        {
          "internalType": "string",
          "name": "state",
          "type": "string"
        },
        {
          "internalType": "string",
          "name": "districtCode",
          "type": "string"
        },
        {
          "internalType": "string",
          "name": "postOfficeNumber",
          "type": "string"
        },
        {
          "internalType": "uint256",
          "name": "registrationDate",
          "type": "uint256"
        }
      ],
      "stateMutability": "view",
      "type": "function"
    },
    {
      "inputs": [],
      "name": "getAllRegisteredDrugs",
      "outputs": [
        {
          "internalType": "uint256[]",
          "name": "",
          "type": "uint256[]"
        }
      ],
      "stateMutability": "view",
      "type": "function"
    },
    {
      "inputs": [
        {
          "internalType": "uint256",
          "name": "_id",
          "type": "uint256"
        }
      ],
      "name": "getDrugDetails",
      "outputs": [
        {
          "internalType": "string",
          "name": "",
          "type": "string"
        },
        {
          "internalType": "string",
          "name": "",
          "type": "string"
        },
        {
          "internalType": "string",
          "name": "",
          "type": "string"
        },
        {
          "internalType": "address",
          "name": "",
          "type": "address"
        },
        {
          "internalType": "string",
          "name": "",
          "type": "string"
        },
        {
          "internalType": "string",
          "name": "",
          "type": "string"
        },
        {
          "internalType": "string",
          "name": "",
          "type": "string"
        },
        {
          "internalType": "uint256",
          "name": "",
          "type": "uint256"
        }
      ],
      "stateMutability": "view",
      "type": "function"
    },
    {
      "inputs": [
        {
          "internalType": "string",
          "name": "_batchNumber",
          "type": "string"
        }
      ],
      "name": "isBatchNumberExists",
      "outputs": [
        {
          "internalType": "bool",
          "name": "",
          "type": "bool"
        }
      ],
      "stateMutability": "view",
      "type": "function"
    },
    {
      "inputs": [
        {
          "internalType": "uint256",
          "name": "_id",
          "type": "uint256"
        },
        {
          "internalType": "string",
          "name": "_name",
          "type": "string"
        },
        {
          "internalType": "string",
          "name": "_manufacturer",
          "type": "string"
        },
        {
          "internalType": "string",
          "name": "_batchNumber",
          "type": "string"
        },
        {
          "internalType": "string",
          "name": "_state",
          "type": "string"
        },
        {
          "internalType": "string",
          "name": "_districtCode",
          "type": "string"
        },
        {
          "internalType": "string",
          "name": "_postOfficeNumber",
          "type": "string"
        }
      ],
      "name": "registerDrug",
      "outputs": [],
      "stateMutability": "nonpayable",
      "type": "function"
    },
    {
      "inputs": [
        {
          "internalType": "uint256",
          "name": "",
          "type": "uint256"
        }
      ],
      "name": "registeredDrugIds",
      "outputs": [
        {
          "internalType": "uint256",
          "name": "",
          "type": "uint256"
        }
      ],
      "stateMutability": "view",
      "type": "function"
    },
    {
      "inputs": [
        {
          "internalType": "uint256",
          "name": "_id",
          "type": "uint256"
        },
        {
          "internalType": "address",
          "name": "_newOwner",
          "type": "address"
        }
      ],
      "name": "transferOwnership",
      "outputs": [],
      "stateMutability": "nonpayable",
      "type": "function"
    }
  ],
  "bytecode": "0x608060405234801561001057600080fd5b50611bcd806100206000396000f3fe608060405234801561001057600080fd5b50600436106100935760003560e01c806372fcedfc1161006657806372fcedfc146101255780637577ca37146101555780638f5cf46714610173578063a4589ccf146101a3578063fca5e61e146101d357610093565b8063189dbd891461009857806329507f73146100b45780632df6f824146100d057806360ee0b6d146100ee575b600080fd5b6100b260048036038101906100ad919061116b565b61020a565b005b6100ce60048036038101906100c99190611313565b6104d4565b005b6100d8610673565b6040516100e59190611411565b60405180910390f35b61010860048036038101906101039190611433565b6106cb565b60405161011c9897969594939291906114fd565b60405180910390f35b61013f600480360381019061013a91906115a5565b610bae565b60405161014c9190611609565b60405180910390f35b61015d610be3565b60405161016a9190611624565b60405180910390f35b61018d600480360381019061018891906115a5565b610be9565b60405161019a9190611609565b60405180910390f35b6101bd60048036038101906101b89190611433565b610c1f565b6040516101ca9190611624565b60405180910390f35b6101ed60048036038101906101e89190611433565b610c43565b6040516102019897969594939291906114fd565b60405180910390f35b600073ffffffffffffffffffffffffffffffffffffffff1660008089815260200190815260200160002060030160009054906101000a900473ffffffffffffffffffffffffffffffffffffffff1673ffffffffffffffffffffffffffffffffffffffff16146102ae576040517f08c379a00000000000000000000000000000000000000000000000000000000081526004016102a59061168b565b60405180910390fd5b6001846040516102be91906116e7565b908152602001604051809103902060009054906101000a900460ff161561031a576040517f08c379a00000000000000000000000000000000000000000000000000000000081526004016103119061174a565b60405180910390fd5b6040518061010001604052808781526020018681526020018581526020013373ffffffffffffffffffffffffffffffffffffffff1681526020018481526020018381526020018281526020014281525060008089815260200190815260200160002060008201518160000190816103919190611976565b5060208201518160010190816103a79190611976565b5060408201518160020190816103bd9190611976565b5060608201518160030160006101000a81548173ffffffffffffffffffffffffffffffffffffffff021916908373ffffffffffffffffffffffffffffffffffffffff160217905550608082015181600401908161041a9190611976565b5060a08201518160050190816104309190611976565b5060c08201518160060190816104469190611976565b5060e082015181600701559050506001808560405161046591906116e7565b908152602001604051809103902060006101000a81548160ff0219169083151502179055506003879080600181540180825580915050600190039060005260206000200160009091909190915055600260008154809291906104c690611a77565b919050555050505050505050565b600073ffffffffffffffffffffffffffffffffffffffff1660008084815260200190815260200160002060030160009054906101000a900473ffffffffffffffffffffffffffffffffffffffff1673ffffffffffffffffffffffffffffffffffffffff1603610578576040517f08c379a000000000000000000000000000000000000000000000000000000000815260040161056f90611b0b565b60405180910390fd5b3373ffffffffffffffffffffffffffffffffffffffff1660008084815260200190815260200160002060030160009054906101000a900473ffffffffffffffffffffffffffffffffffffffff1673ffffffffffffffffffffffffffffffffffffffff161461061b576040517f08c379a000000000000000000000000000000000000000000000000000000000815260040161061290611b77565b60405180910390fd5b8060008084815260200190815260200160002060030160006101000a81548173ffffffffffffffffffffffffffffffffffffffff021916908373ffffffffffffffffffffffffffffffffffffffff1602179055505050565b606060038054806020026020016040519081016040528092919081815260200182805480156106c157602002820191906000526020600020905b8154815260200190600101908083116106ad575b5050505050905090565b60608060606000606080606060008073ffffffffffffffffffffffffffffffffffffffff166000808b815260200190815260200160002060030160009054906101000a900473ffffffffffffffffffffffffffffffffffffffff1673ffffffffffffffffffffffffffffffffffffffff160361077c576040517f08c379a000000000000000000000000000000000000000000000000000000000815260040161077390611b0b565b60405180910390fd5b60008060008b8152602001908152602001600020604051806101000160405290816000820180546107ac90611799565b80601f01602080910402602001604051908101604052809291908181526020018280546107d890611799565b80156108255780601f106107fa57610100808354040283529160200191610825565b820191906000526020600020905b81548152906001019060200180831161080857829003601f168201915b5050505050815260200160018201805461083e90611799565b80601f016020809104026020016040519081016040528092919081815260200182805461086a90611799565b80156108b75780601f1061088c576101008083540402835291602001916108b7565b820191906000526020600020905b81548152906001019060200180831161089a57829003601f168201915b505050505081526020016002820180546108d090611799565b80601f01602080910402602001604051908101604052809291908181526020018280546108fc90611799565b80156109495780601f1061091e57610100808354040283529160200191610949565b820191906000526020600020905b81548152906001019060200180831161092c57829003601f168201915b505050505081526020016003820160009054906101000a900473ffffffffffffffffffffffffffffffffffffffff1673ffffffffffffffffffffffffffffffffffffffff1673ffffffffffffffffffffffffffffffffffffffff1681526020016004820180546109b890611799565b80601f01602080910402602001604051908101604052809291908181526020018280546109e490611799565b8015610a315780601f10610a0657610100808354040283529160200191610a31565b820191906000526020600020905b815481529060010190602001808311610a1457829003601f168201915b50505050508152602001600582018054610a4a90611799565b80601f0160208091040260200160405190810160405280929190818152602001828054610a7690611799565b8015610ac35780601f10610a9857610100808354040283529160200191610ac3565b820191906000526020600020905b815481529060010190602001808311610aa657829003601f168201915b50505050508152602001600682018054610adc90611799565b80601f0160208091040260200160405190810160405280929190818152602001828054610b0890611799565b8015610b555780601f10610b2a57610100808354040283529160200191610b55565b820191906000526020600020905b815481529060010190602001808311610b3857829003601f168201915b505050505081526020016007820154815250509050806000015181602001518260400151836060015184608001518560a001518660c001518760e001519850985098509850985098509850985050919395975091939597565b6000600182604051610bc091906116e7565b908152602001604051809103902060009054906101000a900460ff169050919050565b60025481565b6001818051602081018201805184825260208301602085012081835280955050505050506000915054906101000a900460ff1681565b60038181548110610c2f57600080fd5b906000526020600020016000915090505481565b6000602052806000526040600020600091509050806000018054610c6690611799565b80601f0160208091040260200160405190810160405280929190818152602001828054610c9290611799565b8015610cdf5780601f10610cb457610100808354040283529160200191610cdf565b820191906000526020600020905b815481529060010190602001808311610cc257829003601f168201915b505050505090806001018054610cf490611799565b80601f0160208091040260200160405190810160405280929190818152602001828054610d2090611799565b8015610d6d5780601f10610d4257610100808354040283529160200191610d6d565b820191906000526020600020905b815481529060010190602001808311610d5057829003601f168201915b505050505090806002018054610d8290611799565b80601f0160208091040260200160405190810160405280929190818152602001828054610dae90611799565b8015610dfb5780601f10610dd057610100808354040283529160200191610dfb565b820191906000526020600020905b815481529060010190602001808311610dde57829003601f168201915b5050505050908060030160009054906101000a900473ffffffffffffffffffffffffffffffffffffffff1690806004018054610e3690611799565b80601f0160208091040260200160405190810160405280929190818152602001828054610e6290611799565b8015610eaf5780601f10610e8457610100808354040283529160200191610eaf565b820191906000526020600020905b815481529060010190602001808311610e9257829003601f168201915b505050505090806005018054610ec490611799565b80601f0160208091040260200160405190810160405280929190818152602001828054610ef090611799565b8015610f3d5780601f10610f1257610100808354040283529160200191610f3d565b820191906000526020600020905b815481529060010190602001808311610f2057829003601f168201915b505050505090806006018054610f5290611799565b80601f0160208091040260200160405190810160405280929190818152602001828054610f7e90611799565b8015610fcb5780601f10610fa057610100808354040283529160200191610fcb565b820191906000526020600020905b815481529060010190602001808311610fae57829003601f168201915b5050505050908060070154905088565b6000604051905090565b600080fd5b600080fd5b6000819050919050565b61100281610fef565b811461100d57600080fd5b50565b60008135905061101f81610ff9565b92915050565b600080fd5b600080fd5b6000601f19601f8301169050919050565b7f4e487b7100000000000000000000000000000000000000000000000000000000600052604160045260246000fd5b6110788261102f565b810181811067ffffffffffffffff8211171561109757611096611040565b5b80604052505050565b60006110aa610fdb565b90506110b6828261106f565b919050565b600067ffffffffffffffff8211156110d6576110d5611040565b5b6110df8261102f565b9050602081019050919050565b82818337600083830152505050565b600061110e611109846110bb565b6110a0565b90508281526020810184848401111561112a5761112961102a565b5b6111358482856110ec565b509392505050565b600082601f83011261115257611151611025565b5b81356111628482602086016110fb565b91505092915050565b600080600080600080600060e0888a03121561118a57611189610fe5565b5b60006111988a828b01611010565b975050602088013567ffffffffffffffff8111156111b9576111b8610fea565b5b6111c58a828b0161113d565b965050604088013567ffffffffffffffff8111156111e6576111e5610fea565b5b6111f28a828b0161113d565b955050606088013567ffffffffffffffff81111561121357611212610fea565b5b61121f8a828b0161113d565b945050608088013567ffffffffffffffff8111156112405761123f610fea565b5b61124c8a828b0161113d565b93505060a088013567ffffffffffffffff81111561126d5761126c610fea565b5b6112798a828b0161113d565b92505060c088013567ffffffffffffffff81111561129a57611299610fea565b5b6112a68a828b0161113d565b91505092959891949750929550565b600073ffffffffffffffffffffffffffffffffffffffff82169050919050565b60006112e0826112b5565b9050919050565b6112f0816112d5565b81146112fb57600080fd5b50565b60008135905061130d816112e7565b92915050565b6000806040838503121561132a57611329610fe5565b5b600061133885828601611010565b9250506020611349858286016112fe565b9150509250929050565b600081519050919050565b600082825260208201905092915050565b6000819050602082019050919050565b61138881610fef565b82525050565b600061139a838361137f565b60208301905092915050565b6000602082019050919050565b60006113be82611353565b6113c8818561135e565b93506113d38361136f565b8060005b838110156114045781516113eb888261138e565b97506113f6836113a6565b9250506001810190506113d7565b5085935050505092915050565b6000602082019050818103600083015261142b81846113b3565b905092915050565b60006020828403121561144957611448610fe5565b5b600061145784828501611010565b91505092915050565b600081519050919050565b600082825260208201905092915050565b60005b8381101561149a57808201518184015260208101905061147f565b60008484015250505050565b60006114b182611460565b6114bb818561146b565b93506114cb81856020860161147c565b6114d48161102f565b840191505092915050565b6114e8816112d5565b82525050565b6114f781610fef565b82525050565b6000610100820190508181036000830152611518818b6114a6565b9050818103602083015261152c818a6114a6565b9050818103604083015261154081896114a6565b905061154f60608301886114df565b818103608083015261156181876114a6565b905081810360a083015261157581866114a6565b905081810360c083015261158981856114a6565b905061159860e08301846114ee565b9998505050505050505050565b6000602082840312156115bb576115ba610fe5565b5b600082013567ffffffffffffffff8111156115d9576115d8610fea565b5b6115e58482850161113d565b91505092915050565b60008115159050919050565b611603816115ee565b82525050565b600060208201905061161e60008301846115fa565b92915050565b600060208201905061163960008301846114ee565b92915050565b7f4472756720616c72656164792072656769737465726564000000000000000000600082015250565b600061167560178361146b565b91506116808261163f565b602082019050919050565b600060208201905081810360008301526116a481611668565b9050919050565b600081905092915050565b60006116c182611460565b6116cb81856116ab565b93506116db81856020860161147c565b80840191505092915050565b60006116f382846116b6565b915081905092915050565b7f4261746368206e756d62657220616c7265616479206578697374730000000000600082015250565b6000611734601b8361146b565b915061173f826116fe565b602082019050919050565b6000602082019050818103600083015261176381611727565b9050919050565b7f4e487b7100000000000000000000000000000000000000000000000000000000600052602260045260246000fd5b600060028204905060018216806117b157607f821691505b6020821081036117c4576117c361176a565b5b50919050565b60008190508160005260206000209050919050565b60006020601f8301049050919050565b600082821b905092915050565b60006008830261182c7fffffffffffffffffffffffffffffffffffffffffffffffffffffffffffffffff826117ef565b61183686836117ef565b95508019841693508086168417925050509392505050565b6000819050919050565b600061187361186e61186984610fef565b61184e565b610fef565b9050919050565b6000819050919050565b61188d83611858565b6118a16118998261187a565b8484546117fc565b825550505050565b600090565b6118b66118a9565b6118c1818484611884565b505050565b5b818110156118e5576118da6000826118ae565b6001810190506118c7565b5050565b601f82111561192a576118fb816117ca565b611904846117df565b81016020851015611913578190505b61192761191f856117df565b8301826118c6565b50505b505050565b600082821c905092915050565b600061194d6000198460080261192f565b1980831691505092915050565b6000611966838361193c565b9150826002028217905092915050565b61197f82611460565b67ffffffffffffffff81111561199857611997611040565b5b6119a28254611799565b6119ad8282856118e9565b600060209050601f8311600181146119e057600084156119ce578287015190505b6119d8858261195a565b865550611a40565b601f1984166119ee866117ca565b60005b82811015611a16578489015182556001820191506020850194506020810190506119f1565b86831015611a335784890151611a2f601f89168261193c565b8355505b6001600288020188555050505b505050505050565b7f4e487b7100000000000000000000000000000000000000000000000000000000600052601160045260246000fd5b6000611a8282610fef565b91507fffffffffffffffffffffffffffffffffffffffffffffffffffffffffffffffff8203611ab457611ab3611a48565b5b600182019050919050565b7f44727567206e6f7420666f756e64000000000000000000000000000000000000600082015250565b6000611af5600e8361146b565b9150611b0082611abf565b602082019050919050565b60006020820190508181036000830152611b2481611ae8565b9050919050565b7f596f7520617265206e6f7420746865206f776e65720000000000000000000000600082015250565b6000611b6160158361146b565b9150611b6c82611b2b565b602082019050919050565b60006020820190508181036000830152611b9081611b54565b905091905056fea2646970667358221220d553ce62d430b64e298d1ac37322c9e1d68d8d5477735f489763fb0bab1724c964736f6c63430008120033",
  "linkReferences": {},
  "deployedLinkReferences": {}
}