{
  "_format": "hh-sol-artifact-1",
  "contractName": "DrugTraceability",
  "sourceName": "contracts/DrugTraceability.sol",
  "abi": [
    {
      "inputs": [],
      "name": "drugCount",
      "outputs": [
        {
          "internalType": "uint256",
          "name": "",
          "type": "uint256"
        }
      ],
      "stateMutability": "view",
      "type": "function"
    },
    {
      "inputs": [
        {
          "internalType": "uint256",
          "name": "",
          "type": "uint256"
        }
      ],
      "name": "drugs",
      "outputs": [
        {
          "internalType": "string",
          "name": "name",
          "type": "string"
        },
        {
          "internalType": "string",
          "name": "manufacturer",
          "type": "string"
        },
        {
          "internalType": "string",
          "name": "batchNumber",
          "type": "string"
        },
        {
          "internalType": "address",
          "name": "owner",
          "type": "address"
        }
      ],
      "stateMutability": "view",
      "type": "function"
    },
    {
      "inputs": [],
      "name": "getAllRegisteredDrugs",
      "outputs": [
        {
          "internalType": "uint256[]",
          "name": "",
          "type": "uint256[]"
        }
      ],
      "stateMutability": "view",
      "type": "function"
    },
    {
      "inputs": [
        {
          "internalType": "uint256",
          "name": "_id",
          "type": "uint256"
        }
      ],
      "name": "getDrugDetails",
      "outputs": [
        {
          "internalType": "string",
          "name": "",
          "type": "string"
        },
        {
          "internalType": "string",
          "name": "",
          "type": "string"
        },
        {
          "internalType": "string",
          "name": "",
          "type": "string"
        },
        {
          "internalType": "address",
          "name": "",
          "type": "address"
        }
      ],
      "stateMutability": "view",
      "type": "function"
    },
    {
      "inputs": [
        {
          "internalType": "uint256",
          "name": "_id",
          "type": "uint256"
        },
        {
          "internalType": "string",
          "name": "_name",
          "type": "string"
        },
        {
          "internalType": "string",
          "name": "_manufacturer",
          "type": "string"
        },
        {
          "internalType": "string",
          "name": "_batchNumber",
          "type": "string"
        }
      ],
      "name": "registerDrug",
      "outputs": [],
      "stateMutability": "nonpayable",
      "type": "function"
    },
    {
      "inputs": [
        {
          "internalType": "uint256",
          "name": "",
          "type": "uint256"
        }
      ],
      "name": "registeredDrugIds",
      "outputs": [
        {
          "internalType": "uint256",
          "name": "",
          "type": "uint256"
        }
      ],
      "stateMutability": "view",
      "type": "function"
    },
    {
      "inputs": [
        {
          "internalType": "uint256",
          "name": "_id",
          "type": "uint256"
        },
        {
          "internalType": "address",
          "name": "_newOwner",
          "type": "address"
        }
      ],
      "name": "transferOwnership",
      "outputs": [],
      "stateMutability": "nonpayable",
      "type": "function"
    },
    {
      "inputs": [
        {
          "internalType": "uint256",
          "name": "_id",
          "type": "uint256"
        },
        {
          "internalType": "address",
          "name": "_newOwner",
          "type": "address"
        },
        {
          "internalType": "string",
          "name": "_newManufacturer",
          "type": "string"
        }
      ],
      "name": "transferOwnershipWithName",
      "outputs": [],
      "stateMutability": "nonpayable",
      "type": "function"
    },
    {
      "inputs": [
        {
          "internalType": "uint256",
          "name": "_id",
          "type": "uint256"
        },
        {
          "internalType": "string",
          "name": "_newManufacturer",
          "type": "string"
        }
      ],
      "name": "updateManufacturer",
      "outputs": [],
      "stateMutability": "nonpayable",
      "type": "function"
    }
  ],
  "bytecode": "0x608060405234801561001057600080fd5b50611871806100206000396000f3fe608060405234801561001057600080fd5b50600436106100935760003560e01c806360ee0b6d1161006657806360ee0b6d1461010a5780637577ca371461013d5780637b87643b1461015b578063a4589ccf14610177578063fca5e61e146101a757610093565b806312e2dec5146100985780631b687742146100b457806329507f73146100d05780632df6f824146100ec575b600080fd5b6100b260048036038101906100ad9190610fbd565b6101da565b005b6100ce60048036038101906100c9919061102c565b61039d565b005b6100ea60048036038101906100e591906110e7565b61055d565b005b6100f46106fc565b60405161010191906111e5565b60405180910390f35b610124600480360381019061011f9190611207565b610754565b60405161013494939291906112c2565b60405180910390f35b610145610a4f565b604051610152919061132b565b60405180910390f35b61017560048036038101906101709190611346565b610a55565b005b610191600480360381019061018c9190611207565b610bc3565b60405161019e919061132b565b60405180910390f35b6101c160048036038101906101bc9190611207565b610be7565b6040516101d194939291906112c2565b60405180910390f35b600073ffffffffffffffffffffffffffffffffffffffff1660008085815260200190815260200160002060030160009054906101000a900473ffffffffffffffffffffffffffffffffffffffff1673ffffffffffffffffffffffffffffffffffffffff160361027e576040517f08c379a0000000000000000000000000000000000000000000000000000000008152600401610275906113ee565b60405180910390fd5b3373ffffffffffffffffffffffffffffffffffffffff1660008085815260200190815260200160002060030160009054906101000a900473ffffffffffffffffffffffffffffffffffffffff1673ffffffffffffffffffffffffffffffffffffffff1614610321576040517f08c379a00000000000000000000000000000000000000000000000000000000081526004016103189061145a565b60405180910390fd5b8160008085815260200190815260200160002060030160006101000a81548173ffffffffffffffffffffffffffffffffffffffff021916908373ffffffffffffffffffffffffffffffffffffffff1602179055508060008085815260200190815260200160002060010190816103979190611686565b50505050565b600073ffffffffffffffffffffffffffffffffffffffff1660008086815260200190815260200160002060030160009054906101000a900473ffffffffffffffffffffffffffffffffffffffff1673ffffffffffffffffffffffffffffffffffffffff1614610441576040517f08c379a0000000000000000000000000000000000000000000000000000000008152600401610438906117a4565b60405180910390fd5b60405180608001604052808481526020018381526020018281526020013373ffffffffffffffffffffffffffffffffffffffff16815250600080868152602001908152602001600020600082015181600001908161049f9190611686565b5060208201518160010190816104b59190611686565b5060408201518160020190816104cb9190611686565b5060608201518160030160006101000a81548173ffffffffffffffffffffffffffffffffffffffff021916908373ffffffffffffffffffffffffffffffffffffffff160217905550905050600284908060018154018082558091505060019003906000526020600020016000909190919091505560016000815480929190610552906117f3565b919050555050505050565b600073ffffffffffffffffffffffffffffffffffffffff1660008084815260200190815260200160002060030160009054906101000a900473ffffffffffffffffffffffffffffffffffffffff1673ffffffffffffffffffffffffffffffffffffffff1603610601576040517f08c379a00000000000000000000000000000000000000000000000000000000081526004016105f8906113ee565b60405180910390fd5b3373ffffffffffffffffffffffffffffffffffffffff1660008084815260200190815260200160002060030160009054906101000a900473ffffffffffffffffffffffffffffffffffffffff1673ffffffffffffffffffffffffffffffffffffffff16146106a4576040517f08c379a000000000000000000000000000000000000000000000000000000000815260040161069b9061145a565b60405180910390fd5b8060008084815260200190815260200160002060030160006101000a81548173ffffffffffffffffffffffffffffffffffffffff021916908373ffffffffffffffffffffffffffffffffffffffff1602179055505050565b6060600280548060200260200160405190810160405280929190818152602001828054801561074a57602002820191906000526020600020905b815481526020019060010190808311610736575b5050505050905090565b606080606060008073ffffffffffffffffffffffffffffffffffffffff1660008087815260200190815260200160002060030160009054906101000a900473ffffffffffffffffffffffffffffffffffffffff1673ffffffffffffffffffffffffffffffffffffffff16036107fe576040517f08c379a00000000000000000000000000000000000000000000000000000000081526004016107f5906113ee565b60405180910390fd5b600080600087815260200190815260200160002060405180608001604052908160008201805461082d906114a9565b80601f0160208091040260200160405190810160405280929190818152602001828054610859906114a9565b80156108a65780601f1061087b576101008083540402835291602001916108a6565b820191906000526020600020905b81548152906001019060200180831161088957829003601f168201915b505050505081526020016001820180546108bf906114a9565b80601f01602080910402602001604051908101604052809291908181526020018280546108eb906114a9565b80156109385780601f1061090d57610100808354040283529160200191610938565b820191906000526020600020905b81548152906001019060200180831161091b57829003601f168201915b50505050508152602001600282018054610951906114a9565b80601f016020809104026020016040519081016040528092919081815260200182805461097d906114a9565b80156109ca5780601f1061099f576101008083540402835291602001916109ca565b820191906000526020600020905b8154815290600101906020018083116109ad57829003601f168201915b505050505081526020016003820160009054906101000a900473ffffffffffffffffffffffffffffffffffffffff1673ffffffffffffffffffffffffffffffffffffffff1673ffffffffffffffffffffffffffffffffffffffff1681525050905080600001518160200151826040015183606001519450945094509450509193509193565b60015481565b600073ffffffffffffffffffffffffffffffffffffffff1660008084815260200190815260200160002060030160009054906101000a900473ffffffffffffffffffffffffffffffffffffffff1673ffffffffffffffffffffffffffffffffffffffff1603610af9576040517f08c379a0000000000000000000000000000000000000000000000000000000008152600401610af0906113ee565b60405180910390fd5b3373ffffffffffffffffffffffffffffffffffffffff1660008084815260200190815260200160002060030160009054906101000a900473ffffffffffffffffffffffffffffffffffffffff1673ffffffffffffffffffffffffffffffffffffffff1614610b9c576040517f08c379a0000000000000000000000000000000000000000000000000000000008152600401610b939061145a565b60405180910390fd5b806000808481526020019081526020016000206001019081610bbe9190611686565b505050565b60028181548110610bd357600080fd5b906000526020600020016000915090505481565b6000602052806000526040600020600091509050806000018054610c0a906114a9565b80601f0160208091040260200160405190810160405280929190818152602001828054610c36906114a9565b8015610c835780601f10610c5857610100808354040283529160200191610c83565b820191906000526020600020905b815481529060010190602001808311610c6657829003601f168201915b505050505090806001018054610c98906114a9565b80601f0160208091040260200160405190810160405280929190818152602001828054610cc4906114a9565b8015610d115780601f10610ce657610100808354040283529160200191610d11565b820191906000526020600020905b815481529060010190602001808311610cf457829003601f168201915b505050505090806002018054610d26906114a9565b80601f0160208091040260200160405190810160405280929190818152602001828054610d52906114a9565b8015610d9f5780601f10610d7457610100808354040283529160200191610d9f565b820191906000526020600020905b815481529060010190602001808311610d8257829003601f168201915b5050505050908060030160009054906101000a900473ffffffffffffffffffffffffffffffffffffffff16905084565b6000604051905090565b600080fd5b600080fd5b6000819050919050565b610df681610de3565b8114610e0157600080fd5b50565b600081359050610e1381610ded565b92915050565b600073ffffffffffffffffffffffffffffffffffffffff82169050919050565b6000610e4482610e19565b9050919050565b610e5481610e39565b8114610e5f57600080fd5b50565b600081359050610e7181610e4b565b92915050565b600080fd5b600080fd5b6000601f19601f8301169050919050565b7f4e487b7100000000000000000000000000000000000000000000000000000000600052604160045260246000fd5b610eca82610e81565b810181811067ffffffffffffffff82111715610ee957610ee8610e92565b5b80604052505050565b6000610efc610dcf565b9050610f088282610ec1565b919050565b600067ffffffffffffffff821115610f2857610f27610e92565b5b610f3182610e81565b9050602081019050919050565b82818337600083830152505050565b6000610f60610f5b84610f0d565b610ef2565b905082815260208101848484011115610f7c57610f7b610e7c565b5b610f87848285610f3e565b509392505050565b600082601f830112610fa457610fa3610e77565b5b8135610fb4848260208601610f4d565b91505092915050565b600080600060608486031215610fd657610fd5610dd9565b5b6000610fe486828701610e04565b9350506020610ff586828701610e62565b925050604084013567ffffffffffffffff81111561101657611015610dde565b5b61102286828701610f8f565b9150509250925092565b6000806000806080858703121561104657611045610dd9565b5b600061105487828801610e04565b945050602085013567ffffffffffffffff81111561107557611074610dde565b5b61108187828801610f8f565b935050604085013567ffffffffffffffff8111156110a2576110a1610dde565b5b6110ae87828801610f8f565b925050606085013567ffffffffffffffff8111156110cf576110ce610dde565b5b6110db87828801610f8f565b91505092959194509250565b600080604083850312156110fe576110fd610dd9565b5b600061110c85828601610e04565b925050602061111d85828601610e62565b9150509250929050565b600081519050919050565b600082825260208201905092915050565b6000819050602082019050919050565b61115c81610de3565b82525050565b600061116e8383611153565b60208301905092915050565b6000602082019050919050565b600061119282611127565b61119c8185611132565b93506111a783611143565b8060005b838110156111d85781516111bf8882611162565b97506111ca8361117a565b9250506001810190506111ab565b5085935050505092915050565b600060208201905081810360008301526111ff8184611187565b905092915050565b60006020828403121561121d5761121c610dd9565b5b600061122b84828501610e04565b91505092915050565b600081519050919050565b600082825260208201905092915050565b60005b8381101561126e578082015181840152602081019050611253565b60008484015250505050565b600061128582611234565b61128f818561123f565b935061129f818560208601611250565b6112a881610e81565b840191505092915050565b6112bc81610e39565b82525050565b600060808201905081810360008301526112dc818761127a565b905081810360208301526112f0818661127a565b90508181036040830152611304818561127a565b905061131360608301846112b3565b95945050505050565b61132581610de3565b82525050565b6000602082019050611340600083018461131c565b92915050565b6000806040838503121561135d5761135c610dd9565b5b600061136b85828601610e04565b925050602083013567ffffffffffffffff81111561138c5761138b610dde565b5b61139885828601610f8f565b9150509250929050565b7f44727567206e6f7420666f756e64000000000000000000000000000000000000600082015250565b60006113d8600e8361123f565b91506113e3826113a2565b602082019050919050565b60006020820190508181036000830152611407816113cb565b9050919050565b7f596f7520617265206e6f7420746865206f776e65720000000000000000000000600082015250565b600061144460158361123f565b915061144f8261140e565b602082019050919050565b6000602082019050818103600083015261147381611437565b9050919050565b7f4e487b7100000000000000000000000000000000000000000000000000000000600052602260045260246000fd5b600060028204905060018216806114c157607f821691505b6020821081036114d4576114d361147a565b5b50919050565b60008190508160005260206000209050919050565b60006020601f8301049050919050565b600082821b905092915050565b60006008830261153c7fffffffffffffffffffffffffffffffffffffffffffffffffffffffffffffffff826114ff565b61154686836114ff565b95508019841693508086168417925050509392505050565b6000819050919050565b600061158361157e61157984610de3565b61155e565b610de3565b9050919050565b6000819050919050565b61159d83611568565b6115b16115a98261158a565b84845461150c565b825550505050565b600090565b6115c66115b9565b6115d1818484611594565b505050565b5b818110156115f5576115ea6000826115be565b6001810190506115d7565b5050565b601f82111561163a5761160b816114da565b611614846114ef565b81016020851015611623578190505b61163761162f856114ef565b8301826115d6565b50505b505050565b600082821c905092915050565b600061165d6000198460080261163f565b1980831691505092915050565b6000611676838361164c565b9150826002028217905092915050565b61168f82611234565b67ffffffffffffffff8111156116a8576116a7610e92565b5b6116b282546114a9565b6116bd8282856115f9565b600060209050601f8311600181146116f057600084156116de578287015190505b6116e8858261166a565b865550611750565b601f1984166116fe866114da565b60005b8281101561172657848901518255600182019150602085019450602081019050611701565b86831015611743578489015161173f601f89168261164c565b8355505b6001600288020188555050505b505050505050565b7f4472756720616c72656164792072656769737465726564000000000000000000600082015250565b600061178e60178361123f565b915061179982611758565b602082019050919050565b600060208201905081810360008301526117bd81611781565b9050919050565b7f4e487b7100000000000000000000000000000000000000000000000000000000600052601160045260246000fd5b60006117fe82610de3565b91507fffffffffffffffffffffffffffffffffffffffffffffffffffffffffffffffff82036118305761182f6117c4565b5b60018201905091905056fea2646970667358221220e3cd65f320b36b356ad5f733de01b1e2b421c4b3d2835bc0c542da1a4c01baa164736f6c63430008120033",
  "linkReferences": {},
  "deployedLinkReferences": {}
}