{
  "contractName": "DrugTraceability",
  "abi": [
    {
      "anonymous": false,
      "inputs": [
        {
          "indexed": false,
          "internalType": "uint256",
          "name": "id",
          "type": "uint256"
        },
        {
          "indexed": true,
          "internalType": "address",
          "name": "from",
          "type": "address"
        },
        {
          "indexed": true,
          "internalType": "address",
          "name": "to",
          "type": "address"
        }
      ],
      "name": "DrugOwnershipTransferred",
      "type": "event"
    },
    {
      "anonymous": false,
      "inputs": [
        {
          "indexed": false,
          "internalType": "uint256",
          "name": "id",
          "type": "uint256"
        },
        {
          "indexed": false,
          "internalType": "string",
          "name": "name",
          "type": "string"
        },
        {
          "indexed": true,
          "internalType": "address",
          "name": "manufacturer",
          "type": "address"
        }
      ],
      "name": "DrugRegistered",
      "type": "event"
    },
    {
      "inputs": [
        {
          "internalType": "uint256",
          "name": "",
          "type": "uint256"
        }
      ],
      "name": "drugs",
      "outputs": [
        {
          "internalType": "uint256",
          "name": "id",
          "type": "uint256"
        },
        {
          "internalType": "string",
          "name": "name",
          "type": "string"
        },
        {
          "internalType": "string",
          "name": "manufacturer",
          "type": "string"
        },
        {
          "internalType": "string",
          "name": "batchNumber",
          "type": "string"
        },
        {
          "internalType": "address",
          "name": "currentOwner",
          "type": "address"
        }
      ],
      "stateMutability": "view",
      "type": "function"
    },
    {
      "inputs": [
        {
          "internalType": "uint256",
          "name": "_id",
          "type": "uint256"
        },
        {
          "internalType": "string",
          "name": "_name",
          "type": "string"
        },
        {
          "internalType": "string",
          "name": "_manufacturer",
          "type": "string"
        },
        {
          "internalType": "string",
          "name": "_batchNumber",
          "type": "string"
        }
      ],
      "name": "registerDrug",
      "outputs": [],
      "stateMutability": "nonpayable",
      "type": "function"
    },
    {
      "inputs": [
        {
          "internalType": "uint256",
          "name": "_id",
          "type": "uint256"
        },
        {
          "internalType": "address",
          "name": "_newOwner",
          "type": "address"
        }
      ],
      "name": "transferOwnership",
      "outputs": [],
      "stateMutability": "nonpayable",
      "type": "function"
    },
    {
      "inputs": [
        {
          "internalType": "uint256",
          "name": "_id",
          "type": "uint256"
        }
      ],
      "name": "getDrugDetails",
      "outputs": [
        {
          "internalType": "string",
          "name": "name",
          "type": "string"
        },
        {
          "internalType": "string",
          "name": "manufacturer",
          "type": "string"
        },
        {
          "internalType": "string",
          "name": "batchNumber",
          "type": "string"
        },
        {
          "internalType": "address",
          "name": "currentOwner",
          "type": "address"
        }
      ],
      "stateMutability": "view",
      "type": "function"
    }
  ],
  "bytecode": "0x6080604052348015600e575f5ffd5b506112158061001c5f395ff3fe608060405234801561000f575f5ffd5b506004361061004a575f3560e01c80631b6877421461004e57806329507f731461006a57806360ee0b6d14610086578063fca5e61e146100b9575b5f5ffd5b61006860048036038101906100639190610a75565b6100ed565b005b610084600480360381019061007f9190610b87565b610277565b005b6100a0600480360381019061009b9190610bc5565b610478565b6040516100b09493929190610c5f565b60405180910390f35b6100d360048036038101906100ce9190610bc5565b610713565b6040516100e4959493929190610cc6565b60405180910390f35b5f5f5f8681526020019081526020015f205f015414610141576040517f08c379a000000000000000000000000000000000000000000000000000000000815260040161013890610d76565b60405180910390fd5b6040518060a001604052808581526020018481526020018381526020018281526020013373ffffffffffffffffffffffffffffffffffffffff168152505f5f8681526020019081526020015f205f820151815f015560208201518160010190816101ab9190610f91565b5060408201518160020190816101c19190610f91565b5060608201518160030190816101d79190610f91565b506080820151816004015f6101000a81548173ffffffffffffffffffffffffffffffffffffffff021916908373ffffffffffffffffffffffffffffffffffffffff1602179055509050503373ffffffffffffffffffffffffffffffffffffffff167fc74f6138b459272b53570304923128b340d63779777f301ca93880c6cf68f0828585604051610269929190611060565b60405180910390a250505050565b813373ffffffffffffffffffffffffffffffffffffffff165f5f8381526020019081526020015f206004015f9054906101000a900473ffffffffffffffffffffffffffffffffffffffff1673ffffffffffffffffffffffffffffffffffffffff1614610318576040517f08c379a000000000000000000000000000000000000000000000000000000000815260040161030f906110d8565b60405180910390fd5b5f73ffffffffffffffffffffffffffffffffffffffff168273ffffffffffffffffffffffffffffffffffffffff1603610386576040517f08c379a000000000000000000000000000000000000000000000000000000000815260040161037d90611140565b60405180910390fd5b5f5f5f8581526020019081526020015f206004015f9054906101000a900473ffffffffffffffffffffffffffffffffffffffff169050825f5f8681526020019081526020015f206004015f6101000a81548173ffffffffffffffffffffffffffffffffffffffff021916908373ffffffffffffffffffffffffffffffffffffffff1602179055508273ffffffffffffffffffffffffffffffffffffffff168173ffffffffffffffffffffffffffffffffffffffff167f5f192fe2d49193b95f3ccf95d16129c0bf5482d03fec80f41fd023957b9eacdb8660405161046a919061115e565b60405180910390a350505050565b60608060605f5f5f5f8781526020019081526020015f206040518060a00160405290815f82015481526020016001820180546104b390610dc1565b80601f01602080910402602001604051908101604052809291908181526020018280546104df90610dc1565b801561052a5780601f106105015761010080835404028352916020019161052a565b820191905f5260205f20905b81548152906001019060200180831161050d57829003601f168201915b5050505050815260200160028201805461054390610dc1565b80601f016020809104026020016040519081016040528092919081815260200182805461056f90610dc1565b80156105ba5780601f10610591576101008083540402835291602001916105ba565b820191905f5260205f20905b81548152906001019060200180831161059d57829003601f168201915b505050505081526020016003820180546105d390610dc1565b80601f01602080910402602001604051908101604052809291908181526020018280546105ff90610dc1565b801561064a5780601f106106215761010080835404028352916020019161064a565b820191905f5260205f20905b81548152906001019060200180831161062d57829003601f168201915b50505050508152602001600482015f9054906101000a900473ffffffffffffffffffffffffffffffffffffffff1673ffffffffffffffffffffffffffffffffffffffff1673ffffffffffffffffffffffffffffffffffffffff168152505090505f815f0151036106ef576040517f08c379a00000000000000000000000000000000000000000000000000000000081526004016106e6906111c1565b60405180910390fd5b80602001518160400151826060015183608001519450945094509450509193509193565b5f602052805f5260405f205f91509050805f01549080600101805461073790610dc1565b80601f016020809104026020016040519081016040528092919081815260200182805461076390610dc1565b80156107ae5780601f10610785576101008083540402835291602001916107ae565b820191905f5260205f20905b81548152906001019060200180831161079157829003601f168201915b5050505050908060020180546107c390610dc1565b80601f01602080910402602001604051908101604052809291908181526020018280546107ef90610dc1565b801561083a5780601f106108115761010080835404028352916020019161083a565b820191905f5260205f20905b81548152906001019060200180831161081d57829003601f168201915b50505050509080600301805461084f90610dc1565b80601f016020809104026020016040519081016040528092919081815260200182805461087b90610dc1565b80156108c65780601f1061089d576101008083540402835291602001916108c6565b820191905f5260205f20905b8154815290600101906020018083116108a957829003601f168201915b505050505090806004015f9054906101000a900473ffffffffffffffffffffffffffffffffffffffff16905085565b5f604051905090565b5f5ffd5b5f5ffd5b5f819050919050565b61091881610906565b8114610922575f5ffd5b50565b5f813590506109338161090f565b92915050565b5f5ffd5b5f5ffd5b5f601f19601f8301169050919050565b7f4e487b71000000000000000000000000000000000000000000000000000000005f52604160045260245ffd5b61098782610941565b810181811067ffffffffffffffff821117156109a6576109a5610951565b5b80604052505050565b5f6109b86108f5565b90506109c4828261097e565b919050565b5f67ffffffffffffffff8211156109e3576109e2610951565b5b6109ec82610941565b9050602081019050919050565b828183375f83830152505050565b5f610a19610a14846109c9565b6109af565b905082815260208101848484011115610a3557610a3461093d565b5b610a408482856109f9565b509392505050565b5f82601f830112610a5c57610a5b610939565b5b8135610a6c848260208601610a07565b91505092915050565b5f5f5f5f60808587031215610a8d57610a8c6108fe565b5b5f610a9a87828801610925565b945050602085013567ffffffffffffffff811115610abb57610aba610902565b5b610ac787828801610a48565b935050604085013567ffffffffffffffff811115610ae857610ae7610902565b5b610af487828801610a48565b925050606085013567ffffffffffffffff811115610b1557610b14610902565b5b610b2187828801610a48565b91505092959194509250565b5f73ffffffffffffffffffffffffffffffffffffffff82169050919050565b5f610b5682610b2d565b9050919050565b610b6681610b4c565b8114610b70575f5ffd5b50565b5f81359050610b8181610b5d565b92915050565b5f5f60408385031215610b9d57610b9c6108fe565b5b5f610baa85828601610925565b9250506020610bbb85828601610b73565b9150509250929050565b5f60208284031215610bda57610bd96108fe565b5b5f610be784828501610925565b91505092915050565b5f81519050919050565b5f82825260208201905092915050565b8281835e5f83830152505050565b5f610c2282610bf0565b610c2c8185610bfa565b9350610c3c818560208601610c0a565b610c4581610941565b840191505092915050565b610c5981610b4c565b82525050565b5f6080820190508181035f830152610c778187610c18565b90508181036020830152610c8b8186610c18565b90508181036040830152610c9f8185610c18565b9050610cae6060830184610c50565b95945050505050565b610cc081610906565b82525050565b5f60a082019050610cd95f830188610cb7565b8181036020830152610ceb8187610c18565b90508181036040830152610cff8186610c18565b90508181036060830152610d138185610c18565b9050610d226080830184610c50565b9695505050505050565b7f4472756720494420616c726561647920657869737473000000000000000000005f82015250565b5f610d60601683610bfa565b9150610d6b82610d2c565b602082019050919050565b5f6020820190508181035f830152610d8d81610d54565b9050919050565b7f4e487b71000000000000000000000000000000000000000000000000000000005f52602260045260245ffd5b5f6002820490506001821680610dd857607f821691505b602082108103610deb57610dea610d94565b5b50919050565b5f819050815f5260205f209050919050565b5f6020601f8301049050919050565b5f82821b905092915050565b5f60088302610e4d7fffffffffffffffffffffffffffffffffffffffffffffffffffffffffffffffff82610e12565b610e578683610e12565b95508019841693508086168417925050509392505050565b5f819050919050565b5f610e92610e8d610e8884610906565b610e6f565b610906565b9050919050565b5f819050919050565b610eab83610e78565b610ebf610eb782610e99565b848454610e1e565b825550505050565b5f5f905090565b610ed6610ec7565b610ee1818484610ea2565b505050565b5b81811015610f0457610ef95f82610ece565b600181019050610ee7565b5050565b601f821115610f4957610f1a81610df1565b610f2384610e03565b81016020851015610f32578190505b610f46610f3e85610e03565b830182610ee6565b50505b505050565b5f82821c905092915050565b5f610f695f1984600802610f4e565b1980831691505092915050565b5f610f818383610f5a565b9150826002028217905092915050565b610f9a82610bf0565b67ffffffffffffffff811115610fb357610fb2610951565b5b610fbd8254610dc1565b610fc8828285610f08565b5f60209050601f831160018114610ff9575f8415610fe7578287015190505b610ff18582610f76565b865550611058565b601f19841661100786610df1565b5f5b8281101561102e57848901518255600182019150602085019450602081019050611009565b8683101561104b5784890151611047601f891682610f5a565b8355505b6001600288020188555050505b505050505050565b5f6040820190506110735f830185610cb7565b81810360208301526110858184610c18565b90509392505050565b7f4e6f7420746865206f776e6572000000000000000000000000000000000000005f82015250565b5f6110c2600d83610bfa565b91506110cd8261108e565b602082019050919050565b5f6020820190508181035f8301526110ef816110b6565b9050919050565b7f496e76616c6964206164647265737300000000000000000000000000000000005f82015250565b5f61112a600f83610bfa565b9150611135826110f6565b602082019050919050565b5f6020820190508181035f8301526111578161111e565b9050919050565b5f6020820190506111715f830184610cb7565b92915050565b7f44727567206e6f7420666f756e640000000000000000000000000000000000005f82015250565b5f6111ab600e83610bfa565b91506111b682611177565b602082019050919050565b5f6020820190508181035f8301526111d88161119f565b905091905056fea2646970667358221220678588a87f6faac20abf2e463d23bcfacb78c8c20912d69c615a184bddbb755e64736f6c634300081c0033",
  "immutableReferences": {},
  "source": "// SPDX-License-Identifier: MIT\r\npragma solidity ^0.8.0;\r\n\r\ncontract DrugTraceability {\r\n    struct Drug {\r\n        uint256 id;\r\n        string name;\r\n        string manufacturer;\r\n        string batchNumber;\r\n        address currentOwner;\r\n    }\r\n\r\n    mapping(uint256 => Drug) public drugs;\r\n\r\n    event DrugRegistered(uint256 id, string name, address indexed manufacturer);\r\n    event DrugOwnershipTransferred(uint256 id, address indexed from, address indexed to);\r\n\r\n    modifier onlyOwner(uint256 _id) {\r\n        require(drugs[_id].currentOwner == msg.sender, \"Not the owner\");\r\n        _;\r\n    }\r\n\r\n    function registerDrug(\r\n        uint256 _id,\r\n        string memory _name,\r\n        string memory _manufacturer,\r\n        string memory _batchNumber\r\n    ) public {\r\n        require(drugs[_id].id == 0, \"Drug ID already exists\");\r\n\r\n        drugs[_id] = Drug({\r\n            id: _id,\r\n            name: _name,\r\n            manufacturer: _manufacturer,\r\n            batchNumber: _batchNumber,\r\n            currentOwner: msg.sender\r\n        });\r\n\r\n        emit DrugRegistered(_id, _name, msg.sender);\r\n    }\r\n\r\n    function transferOwnership(uint256 _id, address _newOwner) public onlyOwner(_id) {\r\n        require(_newOwner != address(0), \"Invalid address\");\r\n        address previousOwner = drugs[_id].currentOwner;\r\n        drugs[_id].currentOwner = _newOwner;\r\n\r\n        emit DrugOwnershipTransferred(_id, previousOwner, _newOwner);\r\n    }\r\n\r\n    function getDrugDetails(uint256 _id)\r\n        public\r\n        view\r\n        returns (\r\n            string memory name,\r\n            string memory manufacturer,\r\n            string memory batchNumber,\r\n            address currentOwner\r\n        )\r\n    {\r\n        Drug memory drug = drugs[_id];\r\n        require(drug.id != 0, \"Drug not found\");\r\n        return (\r\n            drug.name,\r\n            drug.manufacturer,\r\n            drug.batchNumber,\r\n            drug.currentOwner\r\n        );\r\n    }\r\n}\r\n",
  "sourcePath": "C:\\Users\\Harsha\\drug-traceability\\contracts\\DrugTraceability.sol",
  "compiler": {
    "name": "solc",
    "version": "0.8.28+commit.7893614a.Emscripten.clang"
  },
  "schemaVersion": "3.4.16",
  "updatedAt": "2024-12-17T17:14:16.311Z",
  "devdoc": {
    "kind": "dev",
    "methods": {},
    "version": 1
  },
  "userdoc": {
    "kind": "user",
    "methods": {},
    "version": 1
  }
}